{
  "_format": "hh-sol-artifact-1",
  "contractName": "CannathaiMintNFT",
  "sourceName": "contracts/CannathaiMintNFT.sol",
  "abi": [
    {
      "inputs": [
        {
          "internalType": "uint96",
          "name": "_royaltyFeesInBips",
          "type": "uint96"
        },
        {
          "internalType": "string",
          "name": "_contractURI",
          "type": "string"
        },
        {
          "internalType": "string",
          "name": "_baseURIstring",
          "type": "string"
        }
      ],
      "stateMutability": "nonpayable",
      "type": "constructor"
    },
    {
      "inputs": [],
      "name": "ApprovalCallerNotOwnerNorApproved",
      "type": "error"
    },
    {
      "inputs": [],
      "name": "ApprovalQueryForNonexistentToken",
      "type": "error"
    },
    {
      "inputs": [],
      "name": "ApprovalToCurrentOwner",
      "type": "error"
    },
    {
      "inputs": [],
      "name": "ApproveToCaller",
      "type": "error"
    },
    {
      "inputs": [],
      "name": "BalanceQueryForZeroAddress",
      "type": "error"
    },
    {
      "inputs": [],
      "name": "MintToZeroAddress",
      "type": "error"
    },
    {
      "inputs": [],
      "name": "MintZeroQuantity",
      "type": "error"
    },
    {
      "inputs": [],
      "name": "OwnerQueryForNonexistentToken",
      "type": "error"
    },
    {
      "inputs": [],
      "name": "TransferCallerNotOwnerNorApproved",
      "type": "error"
    },
    {
      "inputs": [],
      "name": "TransferFromIncorrectOwner",
      "type": "error"
    },
    {
      "inputs": [],
      "name": "TransferToNonERC721ReceiverImplementer",
      "type": "error"
    },
    {
      "inputs": [],
      "name": "TransferToZeroAddress",
      "type": "error"
    },
    {
      "inputs": [],
      "name": "URIQueryForNonexistentToken",
      "type": "error"
    },
    {
      "anonymous": false,
      "inputs": [
        {
          "indexed": true,
          "internalType": "address",
          "name": "owner",
          "type": "address"
        },
        {
          "indexed": true,
          "internalType": "address",
          "name": "approved",
          "type": "address"
        },
        {
          "indexed": true,
          "internalType": "uint256",
          "name": "tokenId",
          "type": "uint256"
        }
      ],
      "name": "Approval",
      "type": "event"
    },
    {
      "anonymous": false,
      "inputs": [
        {
          "indexed": true,
          "internalType": "address",
          "name": "owner",
          "type": "address"
        },
        {
          "indexed": true,
          "internalType": "address",
          "name": "operator",
          "type": "address"
        },
        {
          "indexed": false,
          "internalType": "bool",
          "name": "approved",
          "type": "bool"
        }
      ],
      "name": "ApprovalForAll",
      "type": "event"
    },
    {
      "anonymous": false,
      "inputs": [
        {
          "indexed": true,
          "internalType": "address",
          "name": "previousOwner",
          "type": "address"
        },
        {
          "indexed": true,
          "internalType": "address",
          "name": "newOwner",
          "type": "address"
        }
      ],
      "name": "OwnershipTransferred",
      "type": "event"
    },
    {
      "anonymous": false,
      "inputs": [
        {
          "indexed": true,
          "internalType": "bytes32",
          "name": "role",
          "type": "bytes32"
        },
        {
          "indexed": true,
          "internalType": "bytes32",
          "name": "previousAdminRole",
          "type": "bytes32"
        },
        {
          "indexed": true,
          "internalType": "bytes32",
          "name": "newAdminRole",
          "type": "bytes32"
        }
      ],
      "name": "RoleAdminChanged",
      "type": "event"
    },
    {
      "anonymous": false,
      "inputs": [
        {
          "indexed": true,
          "internalType": "bytes32",
          "name": "role",
          "type": "bytes32"
        },
        {
          "indexed": true,
          "internalType": "address",
          "name": "account",
          "type": "address"
        },
        {
          "indexed": true,
          "internalType": "address",
          "name": "sender",
          "type": "address"
        }
      ],
      "name": "RoleGranted",
      "type": "event"
    },
    {
      "anonymous": false,
      "inputs": [
        {
          "indexed": true,
          "internalType": "bytes32",
          "name": "role",
          "type": "bytes32"
        },
        {
          "indexed": true,
          "internalType": "address",
          "name": "account",
          "type": "address"
        },
        {
          "indexed": true,
          "internalType": "address",
          "name": "sender",
          "type": "address"
        }
      ],
      "name": "RoleRevoked",
      "type": "event"
    },
    {
      "anonymous": false,
      "inputs": [
        {
          "indexed": true,
          "internalType": "address",
          "name": "from",
          "type": "address"
        },
        {
          "indexed": true,
          "internalType": "address",
          "name": "to",
          "type": "address"
        },
        {
          "indexed": true,
          "internalType": "uint256",
          "name": "tokenId",
          "type": "uint256"
        }
      ],
      "name": "Transfer",
      "type": "event"
    },
    {
      "inputs": [],
      "name": "DEFAULT_ADMIN_ROLE",
      "outputs": [
        {
          "internalType": "bytes32",
          "name": "",
          "type": "bytes32"
        }
      ],
      "stateMutability": "view",
      "type": "function"
    },
    {
      "inputs": [],
      "name": "NFT_ADMIN",
      "outputs": [
        {
          "internalType": "bytes32",
          "name": "",
          "type": "bytes32"
        }
      ],
      "stateMutability": "view",
      "type": "function"
    },
    {
      "inputs": [
        {
          "internalType": "address",
          "name": "to",
          "type": "address"
        },
        {
          "internalType": "uint256",
          "name": "tokenId",
          "type": "uint256"
        }
      ],
      "name": "approve",
      "outputs": [],
      "stateMutability": "nonpayable",
      "type": "function"
    },
    {
      "inputs": [
        {
          "internalType": "address",
          "name": "owner",
          "type": "address"
        }
      ],
      "name": "balanceOf",
      "outputs": [
        {
          "internalType": "uint256",
          "name": "",
          "type": "uint256"
        }
      ],
      "stateMutability": "view",
      "type": "function"
    },
    {
      "inputs": [],
      "name": "baseURI",
      "outputs": [
        {
          "internalType": "string",
          "name": "",
          "type": "string"
        }
      ],
      "stateMutability": "view",
      "type": "function"
    },
    {
      "inputs": [
        {
          "internalType": "uint256",
          "name": "_tokenId",
          "type": "uint256"
        }
      ],
      "name": "burnNFT",
      "outputs": [],
      "stateMutability": "nonpayable",
      "type": "function"
    },
    {
      "inputs": [
        {
          "internalType": "uint256",
          "name": "_salePrice",
          "type": "uint256"
        }
      ],
      "name": "calculateRoyalty",
      "outputs": [
        {
          "internalType": "uint256",
          "name": "",
          "type": "uint256"
        }
      ],
      "stateMutability": "view",
      "type": "function"
    },
    {
      "inputs": [],
      "name": "contractURI",
      "outputs": [
        {
          "internalType": "string",
          "name": "",
          "type": "string"
        }
      ],
      "stateMutability": "view",
      "type": "function"
    },
    {
      "inputs": [
        {
          "internalType": "uint256",
          "name": "tokenId",
          "type": "uint256"
        }
      ],
      "name": "getApproved",
      "outputs": [
        {
          "internalType": "address",
          "name": "",
          "type": "address"
        }
      ],
      "stateMutability": "view",
      "type": "function"
    },
    {
      "inputs": [
        {
          "internalType": "bytes32",
          "name": "role",
          "type": "bytes32"
        }
      ],
      "name": "getRoleAdmin",
      "outputs": [
        {
          "internalType": "bytes32",
          "name": "",
          "type": "bytes32"
        }
      ],
      "stateMutability": "view",
      "type": "function"
    },
    {
      "inputs": [
        {
          "internalType": "bytes32",
          "name": "role",
          "type": "bytes32"
        },
        {
          "internalType": "address",
          "name": "account",
          "type": "address"
        }
      ],
      "name": "grantRole",
      "outputs": [],
      "stateMutability": "nonpayable",
      "type": "function"
    },
    {
      "inputs": [
        {
          "internalType": "bytes32",
          "name": "role",
          "type": "bytes32"
        },
        {
          "internalType": "address",
          "name": "account",
          "type": "address"
        }
      ],
      "name": "hasRole",
      "outputs": [
        {
          "internalType": "bool",
          "name": "",
          "type": "bool"
        }
      ],
      "stateMutability": "view",
      "type": "function"
    },
    {
      "inputs": [
        {
          "internalType": "address",
          "name": "owner",
          "type": "address"
        },
        {
          "internalType": "address",
          "name": "operator",
          "type": "address"
        }
      ],
      "name": "isApprovedForAll",
      "outputs": [
        {
          "internalType": "bool",
          "name": "",
          "type": "bool"
        }
      ],
      "stateMutability": "view",
      "type": "function"
    },
    {
      "inputs": [
        {
          "internalType": "uint8",
          "name": "quantity",
          "type": "uint8"
        }
      ],
      "name": "mintPrivateSale",
      "outputs": [],
      "stateMutability": "payable",
      "type": "function"
    },
    {
      "inputs": [
        {
          "internalType": "uint8",
          "name": "quantity",
          "type": "uint8"
        }
      ],
      "name": "mintPublicSale",
      "outputs": [],
      "stateMutability": "payable",
      "type": "function"
    },
    {
      "inputs": [],
      "name": "name",
      "outputs": [
        {
          "internalType": "string",
          "name": "",
          "type": "string"
        }
      ],
      "stateMutability": "view",
      "type": "function"
    },
    {
      "inputs": [],
      "name": "owner",
      "outputs": [
        {
          "internalType": "address",
          "name": "",
          "type": "address"
        }
      ],
      "stateMutability": "view",
      "type": "function"
    },
    {
      "inputs": [
        {
          "internalType": "uint256",
          "name": "tokenId",
          "type": "uint256"
        }
      ],
      "name": "ownerOf",
      "outputs": [
        {
          "internalType": "address",
          "name": "",
          "type": "address"
        }
      ],
      "stateMutability": "view",
      "type": "function"
    },
    {
      "inputs": [],
      "name": "pause",
      "outputs": [],
      "stateMutability": "nonpayable",
      "type": "function"
    },
    {
      "inputs": [],
      "name": "pauseBurn",
      "outputs": [],
      "stateMutability": "nonpayable",
      "type": "function"
    },
    {
      "inputs": [],
      "name": "pausePrivateSale",
      "outputs": [],
      "stateMutability": "nonpayable",
      "type": "function"
    },
    {
      "inputs": [],
      "name": "pausePublicSale",
      "outputs": [],
      "stateMutability": "nonpayable",
      "type": "function"
    },
    {
      "inputs": [],
      "name": "presaleCost",
      "outputs": [
        {
          "internalType": "uint256",
          "name": "",
          "type": "uint256"
        }
      ],
      "stateMutability": "view",
      "type": "function"
    },
    {
      "inputs": [],
      "name": "publicsaleCost",
      "outputs": [
        {
          "internalType": "uint256",
          "name": "",
          "type": "uint256"
        }
      ],
      "stateMutability": "view",
      "type": "function"
    },
    {
      "inputs": [],
      "name": "renounceOwnership",
      "outputs": [],
      "stateMutability": "nonpayable",
      "type": "function"
    },
    {
      "inputs": [
        {
          "internalType": "bytes32",
          "name": "role",
          "type": "bytes32"
        },
        {
          "internalType": "address",
          "name": "account",
          "type": "address"
        }
      ],
      "name": "renounceRole",
      "outputs": [],
      "stateMutability": "nonpayable",
      "type": "function"
    },
    {
      "inputs": [
        {
          "internalType": "bytes32",
          "name": "role",
          "type": "bytes32"
        },
        {
          "internalType": "address",
          "name": "account",
          "type": "address"
        }
      ],
      "name": "revokeRole",
      "outputs": [],
      "stateMutability": "nonpayable",
      "type": "function"
    },
    {
      "inputs": [
        {
          "internalType": "uint256",
          "name": "_salePrice",
          "type": "uint256"
        }
      ],
      "name": "royaltyInfo",
      "outputs": [
        {
          "internalType": "address",
          "name": "",
          "type": "address"
        },
        {
          "internalType": "uint256",
          "name": "",
          "type": "uint256"
        }
      ],
      "stateMutability": "view",
      "type": "function"
    },
    {
      "inputs": [
        {
          "internalType": "address",
          "name": "from",
          "type": "address"
        },
        {
          "internalType": "address",
          "name": "to",
          "type": "address"
        },
        {
          "internalType": "uint256",
          "name": "tokenId",
          "type": "uint256"
        }
      ],
      "name": "safeTransferFrom",
      "outputs": [],
      "stateMutability": "nonpayable",
      "type": "function"
    },
    {
      "inputs": [
        {
          "internalType": "address",
          "name": "from",
          "type": "address"
        },
        {
          "internalType": "address",
          "name": "to",
          "type": "address"
        },
        {
          "internalType": "uint256",
          "name": "tokenId",
          "type": "uint256"
        },
        {
          "internalType": "bytes",
          "name": "_data",
          "type": "bytes"
        }
      ],
      "name": "safeTransferFrom",
      "outputs": [],
      "stateMutability": "nonpayable",
      "type": "function"
    },
    {
      "inputs": [
        {
          "internalType": "address",
          "name": "operator",
          "type": "address"
        },
        {
          "internalType": "bool",
          "name": "approved",
          "type": "bool"
        }
      ],
      "name": "setApprovalForAll",
      "outputs": [],
      "stateMutability": "nonpayable",
      "type": "function"
    },
    {
      "inputs": [
        {
          "internalType": "string",
          "name": "_baseURIstring",
          "type": "string"
        }
      ],
      "name": "setBaseURI",
      "outputs": [],
      "stateMutability": "nonpayable",
      "type": "function"
    },
    {
      "inputs": [
        {
          "internalType": "string",
          "name": "_contractURI",
          "type": "string"
        }
      ],
      "name": "setContractURI",
      "outputs": [],
      "stateMutability": "nonpayable",
      "type": "function"
    },
    {
      "inputs": [
        {
          "internalType": "uint256",
          "name": "_newCost",
          "type": "uint256"
        }
      ],
      "name": "setPresaleCost",
      "outputs": [],
      "stateMutability": "nonpayable",
      "type": "function"
    },
    {
      "inputs": [
        {
          "internalType": "uint256",
          "name": "_newCost",
          "type": "uint256"
        }
      ],
      "name": "setPublicCost",
      "outputs": [],
      "stateMutability": "nonpayable",
      "type": "function"
    },
    {
      "inputs": [
        {
          "internalType": "address",
          "name": "_receiver",
          "type": "address"
        },
        {
          "internalType": "uint96",
          "name": "_royaltyFeesInBips",
          "type": "uint96"
        }
      ],
      "name": "setRoyaltyInfo",
      "outputs": [],
      "stateMutability": "nonpayable",
      "type": "function"
    },
    {
      "inputs": [
        {
          "internalType": "bytes4",
          "name": "interfaceId",
          "type": "bytes4"
        }
      ],
      "name": "supportsInterface",
      "outputs": [
        {
          "internalType": "bool",
          "name": "",
          "type": "bool"
        }
      ],
      "stateMutability": "view",
      "type": "function"
    },
    {
      "inputs": [],
      "name": "symbol",
      "outputs": [
        {
          "internalType": "string",
          "name": "",
          "type": "string"
        }
      ],
      "stateMutability": "view",
      "type": "function"
    },
    {
      "inputs": [
        {
          "internalType": "uint256",
          "name": "tokenId",
          "type": "uint256"
        }
      ],
      "name": "tokenURI",
      "outputs": [
        {
          "internalType": "string",
          "name": "",
          "type": "string"
        }
      ],
      "stateMutability": "view",
      "type": "function"
    },
    {
      "inputs": [],
      "name": "totalPrivateSaleMint",
      "outputs": [
        {
          "internalType": "uint256",
          "name": "",
          "type": "uint256"
        }
      ],
      "stateMutability": "view",
      "type": "function"
    },
    {
      "inputs": [],
      "name": "totalPublicSaleMint",
      "outputs": [
        {
          "internalType": "uint256",
          "name": "",
          "type": "uint256"
        }
      ],
      "stateMutability": "view",
      "type": "function"
    },
    {
      "inputs": [],
      "name": "totalSupply",
      "outputs": [
        {
          "internalType": "uint256",
          "name": "",
          "type": "uint256"
        }
      ],
      "stateMutability": "view",
      "type": "function"
    },
    {
      "inputs": [
        {
          "internalType": "address",
          "name": "from",
          "type": "address"
        },
        {
          "internalType": "address",
          "name": "to",
          "type": "address"
        },
        {
          "internalType": "uint256",
          "name": "tokenId",
          "type": "uint256"
        }
      ],
      "name": "transferFrom",
      "outputs": [],
      "stateMutability": "nonpayable",
      "type": "function"
    },
    {
      "inputs": [
        {
          "internalType": "address",
          "name": "newOwner",
          "type": "address"
        }
      ],
      "name": "transferOwnership",
      "outputs": [],
      "stateMutability": "nonpayable",
      "type": "function"
    },
    {
      "inputs": [],
      "name": "unpause",
      "outputs": [],
      "stateMutability": "nonpayable",
      "type": "function"
    },
    {
      "inputs": [],
      "name": "unpauseBurn",
      "outputs": [],
      "stateMutability": "nonpayable",
      "type": "function"
    },
    {
      "inputs": [],
      "name": "unpausePrivateSale",
      "outputs": [],
      "stateMutability": "nonpayable",
      "type": "function"
    },
    {
      "inputs": [],
      "name": "unpausePublicSale",
      "outputs": [],
      "stateMutability": "nonpayable",
      "type": "function"
    }
  ],
  "bytecode": "0x6080604052600b80546001600160481b0319166825e4012c07d0320a051790556704db732547630000600c5567063eb89da4ed0000600d553480156200004457600080fd5b506040516200354b3803806200354b833981016040819052620000679162000436565b604080518082018252601081526f10d85b9b985d1a185a535a5b9d13919560821b60208083019182528351808501909452600384526221a6a760e91b908401528151919291620000ba91600291620002d9565b508051620000d0906003906020840190620002d9565b50506000805550620000e233620001ca565b6001600955601080546001600160601b0319166001600160601b038516179055620001156008546001600160a01b031690565b601080546001600160a01b03929092166c01000000000000000000000000026001600160601b0390921691909117905581516200015a90600e906020850190620002d9565b5080516200017090600f906020840190620002d9565b5060138054336001600160a01b03199091161790556200019d60116200021c602090811b62001a6817901c565b620001b460126200021c60201b62001a681760201c565b620001c160003362000225565b50505062000513565b600880546001600160a01b038381166001600160a01b0319831681179093556040519116919082907f8be0079c531659141344cd1fd0a4f28419497f9722a3daafe3b4186f6b6457e090600090a35050565b80546001019055565b62000231828262000235565b5050565b6000828152600a602090815260408083206001600160a01b038516845290915290205460ff1662000231576000828152600a602090815260408083206001600160a01b03851684529091529020805460ff19166001179055620002953390565b6001600160a01b0316816001600160a01b0316837f2f8788117e7eff1d82e926ec794901d17c78024a50270940304540a733656f0d60405160405180910390a45050565b828054620002e790620004c0565b90600052602060002090601f0160209004810192826200030b576000855562000356565b82601f106200032657805160ff191683800117855562000356565b8280016001018555821562000356579182015b828111156200035657825182559160200191906001019062000339565b506200036492915062000368565b5090565b5b8082111562000364576000815560010162000369565b600082601f8301126200039157600080fd5b81516001600160401b0380821115620003ae57620003ae620004fd565b604051601f8301601f19908116603f01168101908282118183101715620003d957620003d9620004fd565b81604052838152602092508683858801011115620003f657600080fd5b600091505b838210156200041a5785820183015181830184015290820190620003fb565b838211156200042c5760008385830101525b9695505050505050565b6000806000606084860312156200044c57600080fd5b83516001600160601b03811681146200046457600080fd5b60208501519093506001600160401b03808211156200048257600080fd5b62000490878388016200037f565b93506040860151915080821115620004a757600080fd5b50620004b6868287016200037f565b9150509250925092565b600181811c90821680620004d557607f821691505b60208210811415620004f757634e487b7160e01b600052602260045260246000fd5b50919050565b634e487b7160e01b600052604160045260246000fd5b61302880620005236000396000f3fe6080604052600436106102935760003560e01c806370a082311161015a578063a2e69613116100c1578063cbc4b1421161007a578063cbc4b14214610775578063cef6d3681461078a578063d547741f146107c9578063e8a3d485146107e9578063e985e9c5146107fe578063f2fde38b1461084757600080fd5b8063a2e69613146106da578063a6559fe4146106fa578063a76824d71461070f578063b88d4fde14610722578063c31f2d1d14610742578063c87b56dd1461075557600080fd5b806391d148541161011357806391d148541461063a57806392829d741461065a578063938e3d7b1461067057806395d89b4114610690578063a217fddf146106a5578063a22cb465146106ba57600080fd5b806370a0823114610592578063715018a6146105b2578063811d2437146105c75780638456cb59146105e75780638da5cb5b146105fc5780638fdcf9421461061a57600080fd5b80632a23d07d116101fe5780633f4ba83a116101b75780633f4ba83a146104f357806342842e0e146105085780634295e8571461052857806355f804b31461053d5780636352211e1461055d5780636c0360eb1461057d57600080fd5b80632a23d07d1461043f5780632be1c84c146104555780632d471e9e1461046a5780632f2ff15d1461049e57806335d62f9e146104be57806336568abe146104d357600080fd5b80630c41f497116102505780630c41f4971461038c57806318160ddd146103a157806318736df8146103ba57806323b872dd146103cf578063248a9ca3146103ef5780632890e0d71461041f57600080fd5b806301ffc9a71461029857806302fa7c47146102cd578063039e21bf146102ef57806306fdde0314610312578063081812fc14610334578063095ea7b31461036c575b600080fd5b3480156102a457600080fd5b506102b86102b3366004612a51565b610867565b60405190151581526020015b60405180910390f35b3480156102d957600080fd5b506102ed6102e83660046129dd565b610878565b005b3480156102fb57600080fd5b50610304610904565b6040519081526020016102c4565b34801561031e57600080fd5b50610327610914565b6040516102c49190612c74565b34801561034057600080fd5b5061035461034f366004612a15565b6109a6565b6040516001600160a01b0390911681526020016102c4565b34801561037857600080fd5b506102ed6103873660046129b3565b6109ea565b34801561039857600080fd5b506102ed610abd565b3480156103ad57600080fd5b5060015460005403610304565b3480156103c657600080fd5b506102ed610b26565b3480156103db57600080fd5b506102ed6103ea3660046128c0565b610be0565b3480156103fb57600080fd5b5061030461040a366004612a15565b6000908152600a602052604090206001015490565b34801561042b57600080fd5b506102ed61043a366004612a15565b610bf0565b34801561044b57600080fd5b50610304600c5481565b34801561046157600080fd5b506102ed610c26565b34801561047657600080fd5b506103047facc28992f5e1c930a8d582286785d1843a6300cad9d482d45db9faface656f6281565b3480156104aa57600080fd5b506102ed6104b9366004612a2e565b610cde565b3480156104ca57600080fd5b506102ed610d04565b3480156104df57600080fd5b506102ed6104ee366004612a2e565b610d6d565b3480156104ff57600080fd5b506102ed610deb565b34801561051457600080fd5b506102ed6105233660046128c0565b610e4d565b34801561053457600080fd5b506102ed610e68565b34801561054957600080fd5b506102ed610558366004612afc565b610f20565b34801561056957600080fd5b50610354610578366004612a15565b610f87565b34801561058957600080fd5b50610327610f99565b34801561059e57600080fd5b506103046105ad366004612872565b611027565b3480156105be57600080fd5b506102ed611075565b3480156105d357600080fd5b506102ed6105e2366004612a15565b6110ab565b3480156105f357600080fd5b506102ed611103565b34801561060857600080fd5b506008546001600160a01b0316610354565b34801561062657600080fd5b506102ed610635366004612a15565b61116c565b34801561064657600080fd5b506102b8610655366004612a2e565b6111c4565b34801561066657600080fd5b50610304600d5481565b34801561067c57600080fd5b506102ed61068b366004612a8b565b6111ef565b34801561069c57600080fd5b5061032761124f565b3480156106b157600080fd5b50610304600081565b3480156106c657600080fd5b506102ed6106d5366004612977565b61125e565b3480156106e657600080fd5b506103046106f5366004612a15565b6112f4565b34801561070657600080fd5b506102ed611348565b6102ed61071d366004612b44565b6113b1565b34801561072e57600080fd5b506102ed61073d3660046128fc565b61162c565b6102ed610750366004612b44565b611676565b34801561076157600080fd5b50610327610770366004612a15565b6118e3565b34801561078157600080fd5b50610304611968565b34801561079657600080fd5b506107aa6107a5366004612a15565b611973565b604080516001600160a01b0390931683526020830191909152016102c4565b3480156107d557600080fd5b506102ed6107e4366004612a2e565b61199d565b3480156107f557600080fd5b506103276119c3565b34801561080a57600080fd5b506102b861081936600461288d565b6001600160a01b03918216600090815260076020908152604080832093909416825291909152205460ff1690565b34801561085357600080fd5b506102ed610862366004612872565b6119d0565b600061087282611a71565b92915050565b6008546001600160a01b031633146108ab5760405162461bcd60e51b81526004016108a290612d2b565b60405180910390fd5b601354600160a01b900460ff16156108d55760405162461bcd60e51b81526004016108a290612c87565b6001600160601b03166001600160a01b03909116600160601b026bffffffffffffffffffffffff191617601055565b600061090f60115490565b905090565b60606002805461092390612efa565b80601f016020809104026020016040519081016040528092919081815260200182805461094f90612efa565b801561099c5780601f106109715761010080835404028352916020019161099c565b820191906000526020600020905b81548152906001019060200180831161097f57829003601f168201915b5050505050905090565b60006109b182611a96565b6109ce576040516333d1c03960e21b815260040160405180910390fd5b506000908152600660205260409020546001600160a01b031690565b60006109f582610f87565b9050806001600160a01b0316836001600160a01b03161415610a2a5760405163250fdee360e21b815260040160405180910390fd5b336001600160a01b03821614610a6157610a448133610819565b610a61576040516367d9dca160e11b815260040160405180910390fd5b60008281526006602052604080822080546001600160a01b0319166001600160a01b0387811691821790925591518593918516917f8c5be1e5ebec7d5bd14f71427d1e84f3dd0314c0f7b2291e5b200ac8c7c3b92591a4505050565b6008546001600160a01b03163314610ae75760405162461bcd60e51b81526004016108a290612d2b565b601354600160a81b900460ff1615610b115760405162461bcd60e51b81526004016108a290612da8565b6013805460ff60a81b1916600160a81b179055565b6008546001600160a01b03163314610b505760405162461bcd60e51b81526004016108a290612d2b565b601354600160b01b900460ff16610bd1576040805162461bcd60e51b81526020600482015260248101919091527f5b43616e6e61746861694d696e744e46542e7768656e5072697661746553616c60448201527f655061757365645d20507269766174652053616c65204e6f742050617573656460648201526084016108a2565b6013805460ff60b01b19169055565b610beb838383611ac1565b505050565b601354600160b81b900460ff1615610c1a5760405162461bcd60e51b81526004016108a290612e05565b610c2381611cab565b50565b6008546001600160a01b03163314610c505760405162461bcd60e51b81526004016108a290612d2b565b601354600160a81b900460ff16610ccf5760405162461bcd60e51b815260206004820152603e60248201527f5b43616e6e61746861694d696e744e46542e7768656e5075626c696353616c6560448201527f5061757365645d205075626c69632053616c65204e6f7420506175736564000060648201526084016108a2565b6013805460ff60a81b19169055565b6000828152600a6020526040902060010154610cfa8133611cb6565b610beb8383611d1a565b6008546001600160a01b03163314610d2e5760405162461bcd60e51b81526004016108a290612d2b565b601354600160b01b900460ff1615610d585760405162461bcd60e51b81526004016108a290612cce565b6013805460ff60b01b1916600160b01b179055565b6001600160a01b0381163314610ddd5760405162461bcd60e51b815260206004820152602f60248201527f416363657373436f6e74726f6c3a2063616e206f6e6c792072656e6f756e636560448201526e103937b632b9903337b91039b2b63360891b60648201526084016108a2565b610de78282611da0565b5050565b6008546001600160a01b03163314610e155760405162461bcd60e51b81526004016108a290612d2b565b601354600160a01b900460ff16610e3e5760405162461bcd60e51b81526004016108a290612d60565b6013805460ff60a01b19169055565b610beb8383836040518060200160405280600081525061162c565b6008546001600160a01b03163314610e925760405162461bcd60e51b81526004016108a290612d2b565b601354600160b81b900460ff16610f115760405162461bcd60e51b815260206004820152603860248201527f5b43616e6e61746861694d696e744e46542e7768656e5072697661746553616c60448201527f655061757365645d204275726e204e6f7420506175736564000000000000000060648201526084016108a2565b6013805460ff60b81b19169055565b6008546001600160a01b03163314610f4a5760405162461bcd60e51b81526004016108a290612d2b565b601354600160a01b900460ff1615610f745760405162461bcd60e51b81526004016108a290612c87565b8051610de790600f9060208401906126d9565b6000610f9282611e07565b5192915050565b600f8054610fa690612efa565b80601f0160208091040260200160405190810160405280929190818152602001828054610fd290612efa565b801561101f5780601f10610ff45761010080835404028352916020019161101f565b820191906000526020600020905b81548152906001019060200180831161100257829003601f168201915b505050505081565b60006001600160a01b038216611050576040516323d3ad8160e21b815260040160405180910390fd5b506001600160a01b03166000908152600560205260409020546001600160401b031690565b6008546001600160a01b0316331461109f5760405162461bcd60e51b81526004016108a290612d2b565b6110a96000611f21565b565b6008546001600160a01b031633146110d55760405162461bcd60e51b81526004016108a290612d2b565b601354600160a01b900460ff166110fe5760405162461bcd60e51b81526004016108a290612d60565b600d55565b6008546001600160a01b0316331461112d5760405162461bcd60e51b81526004016108a290612d2b565b601354600160a01b900460ff16156111575760405162461bcd60e51b81526004016108a290612c87565b6013805460ff60a01b1916600160a01b179055565b6008546001600160a01b031633146111965760405162461bcd60e51b81526004016108a290612d2b565b601354600160a01b900460ff166111bf5760405162461bcd60e51b81526004016108a290612d60565b600c55565b6000918252600a602090815260408084206001600160a01b0393909316845291905290205460ff1690565b6008546001600160a01b031633146112195760405162461bcd60e51b81526004016108a290612d2b565b601354600160a01b900460ff16156112435760405162461bcd60e51b81526004016108a290612c87565b610beb600e838361275d565b60606003805461092390612efa565b6001600160a01b0382163314156112885760405163b06307db60e01b815260040160405180910390fd5b3360008181526007602090815260408083206001600160a01b03871680855290835292819020805460ff191686151590811790915590519081529192917f17307eab39ab6107e8899845ad3d59bd9653f200f220920489ca2b5937696c31910160405180910390a35050565b601354600090600160a01b900460ff16156113215760405162461bcd60e51b81526004016108a290612c87565b6010546001600160601b031661133961271084612e6d565b6108729190612e81565b919050565b6008546001600160a01b031633146113725760405162461bcd60e51b81526004016108a290612d2b565b601354600160b81b900460ff161561139c5760405162461bcd60e51b81526004016108a290612e05565b6013805460ff60b81b1916600160b81b179055565b600260095414156114045760405162461bcd60e51b815260206004820152601f60248201527f5265656e7472616e637947756172643a207265656e7472616e742063616c6c0060448201526064016108a2565b6002600955601354600160b01b900460ff16156114335760405162461bcd60e51b81526004016108a290612cce565b600b54336000908152600560205260409020546201000090910460ff1690600160401b90046001600160401b031661146e9060ff8416612e55565b11156114b15760405162461bcd60e51b8152602060048201526012602482015271115e18d959591959081d1a19481b1a5b5a5d60721b60448201526064016108a2565b600b546301000000900461ffff1660ff82166114d06001546000540390565b6114da9190612e55565b11156115215760405162461bcd60e51b8152602060048201526016602482015275139bdd08195b9bdd59da081d1bdad95b9cc81b19599d60521b60448201526064016108a2565b8060ff16600c546115329190612e81565b34101561153e57600080fd5b600b5461ffff650100000000009091041661155860115490565b111561156357600080fd5b600b5460ff90811690821611156115bc5760405162461bcd60e51b815260206004820152601f60248201527f45786365656465642074686520507269766174652053616c65206c696d69740060448201526064016108a2565b601354600c546001600160a01b03909116906108fc906115e09060ff851690612e81565b6040518115909202916000818181858888f19350505050158015611608573d6000803e3d6000fd5b50611617601180546001019055565b611624338260ff16611f73565b506001600955565b611637848484611ac1565b6001600160a01b0383163b156116705761165384848484611f8d565b611670576040516368d2bf6b60e11b815260040160405180910390fd5b50505050565b600260095414156116c95760405162461bcd60e51b815260206004820152601f60248201527f5265656e7472616e637947756172643a207265656e7472616e742063616c6c0060448201526064016108a2565b6002600955601354600160a81b900460ff16156116f85760405162461bcd60e51b81526004016108a290612da8565b600b54336000908152600560205260409020546201000090910460ff1690600160401b90046001600160401b03166117339060ff8416612e55565b11156117765760405162461bcd60e51b8152602060048201526012602482015271115e18d959591959081d1a19481b1a5b5a5d60721b60448201526064016108a2565b600b546301000000900461ffff1660ff82166117956001546000540390565b61179f9190612e55565b11156117e65760405162461bcd60e51b8152602060048201526016602482015275139bdd08195b9bdd59da081d1bdad95b9cc81b19599d60521b60448201526064016108a2565b8060ff16600d546117f79190612e81565b34101561180357600080fd5b600b5461ffff6701000000000000009091041661181f60125490565b111561182a57600080fd5b600b5460ff610100909104811690821611156118885760405162461bcd60e51b815260206004820152601e60248201527f457863656564656420746865205075626c69632053616c65206c696d6974000060448201526064016108a2565b601354600d546001600160a01b03909116906108fc906118ac9060ff851690612e81565b6040518115909202916000818181858888f193505050501580156118d4573d6000803e3d6000fd5b50611617601280546001019055565b60606118ee82611a96565b61190b57604051630a14c4b560e41b815260040160405180910390fd5b6000611915612085565b90508051600014156119365760405180602001604052806000815250611961565b8061194084612094565b604051602001611951929190612b93565b6040516020818303038152906040525b9392505050565b600061090f60125490565b6010546000908190600160601b90046001600160a01b0316611994846112f4565b91509150915091565b6000828152600a60205260409020600101546119b98133611cb6565b610beb8383611da0565b600e8054610fa690612efa565b6008546001600160a01b031633146119fa5760405162461bcd60e51b81526004016108a290612d2b565b6001600160a01b038116611a5f5760405162461bcd60e51b815260206004820152602660248201527f4f776e61626c653a206e6577206f776e657220697320746865207a65726f206160448201526564647265737360d01b60648201526084016108a2565b610c2381611f21565b80546001019055565b60006001600160e01b03198216637965db0b60e01b1480610872575061087282612191565b6000805482108015610872575050600090815260046020526040902054600160e01b900460ff161590565b6000611acc82611e07565b9050836001600160a01b031681600001516001600160a01b031614611b035760405162a1148160e81b815260040160405180910390fd5b6000336001600160a01b0386161480611b215750611b218533610819565b80611b3c575033611b31846109a6565b6001600160a01b0316145b905080611b5c57604051632ce44b5f60e11b815260040160405180910390fd5b6001600160a01b038416611b8357604051633a954ecd60e21b815260040160405180910390fd5b600083815260066020908152604080832080546001600160a01b03191690556001600160a01b03888116845260058352818420805467ffffffffffffffff198082166001600160401b0392831660001901831617909255898316808752848720805493841693831660019081018416949094179055898752600490955283862080546001600160e01b031916909517600160a01b4290921691909102178455870180855291909320805492939192909116611c72576000548214611c7257805460208601516001600160401b0316600160a01b026001600160e01b03199091166001600160a01b038a16171781555b50505082846001600160a01b0316866001600160a01b0316600080516020612fd383398151915260405160405180910390a45050505050565b610c238160006121e1565b611cc082826111c4565b610de757611cd8816001600160a01b031660146123a3565b611ce38360206123a3565b604051602001611cf4929190612bc2565b60408051601f198184030181529082905262461bcd60e51b82526108a291600401612c74565b611d2482826111c4565b610de7576000828152600a602090815260408083206001600160a01b03851684529091529020805460ff19166001179055611d5c3390565b6001600160a01b0316816001600160a01b0316837f2f8788117e7eff1d82e926ec794901d17c78024a50270940304540a733656f0d60405160405180910390a45050565b611daa82826111c4565b15610de7576000828152600a602090815260408083206001600160a01b0385168085529252808320805460ff1916905551339285917ff6391f5c32d9c69d2a47ea670b442974b53935d1edc7fd64eb21e047a839171b9190a45050565b604080516060810182526000808252602082018190529181019190915281600054811015611f0857600081815260046020908152604091829020825160608101845290546001600160a01b0381168252600160a01b81046001600160401b031692820192909252600160e01b90910460ff16151591810182905290611f065780516001600160a01b031615611e9d579392505050565b5060001901600081815260046020908152604091829020825160608101845290546001600160a01b038116808352600160a01b82046001600160401b031693830193909352600160e01b900460ff1615159281019290925215611f01579392505050565b611e9d565b505b604051636f96cda160e11b815260040160405180910390fd5b600880546001600160a01b038381166001600160a01b0319831681179093556040519116919082907f8be0079c531659141344cd1fd0a4f28419497f9722a3daafe3b4186f6b6457e090600090a35050565b610de782826040518060200160405280600081525061253e565b604051630a85bd0160e11b81526000906001600160a01b0385169063150b7a0290611fc2903390899088908890600401612c37565b602060405180830381600087803b158015611fdc57600080fd5b505af192505050801561200c575060408051601f3d908101601f1916820190925261200991810190612a6e565b60015b612067573d80801561203a576040519150601f19603f3d011682016040523d82523d6000602084013e61203f565b606091505b50805161205f576040516368d2bf6b60e11b815260040160405180910390fd5b805181602001fd5b6001600160e01b031916630a85bd0160e11b1490505b949350505050565b6060600f805461092390612efa565b6060816120b85750506040805180820190915260018152600360fc1b602082015290565b8160005b81156120e257806120cc81612f35565b91506120db9050600a83612e6d565b91506120bc565b6000816001600160401b038111156120fc576120fc612fa6565b6040519080825280601f01601f191660200182016040528015612126576020820181803683370190505b5090505b841561207d5761213b600183612ea0565b9150612148600a86612f50565b612153906030612e55565b60f81b81838151811061216857612168612f90565b60200101906001600160f81b031916908160001a90535061218a600a86612e6d565b945061212a565b60006001600160e01b031982166380ac58cd60e01b14806121c257506001600160e01b03198216635b5e139f60e01b145b8061087257506301ffc9a760e01b6001600160e01b0319831614610872565b60006121ec83611e07565b80519091508215612252576000336001600160a01b038316148061221557506122158233610819565b80612230575033612225866109a6565b6001600160a01b0316145b90508061225057604051632ce44b5f60e11b815260040160405180910390fd5b505b600084815260066020908152604080832080546001600160a01b03191690556001600160a01b03848116808552600584528285208054600160801b6000196001600160401b0380841691909101811667ffffffffffffffff198416811783900482166001908101831690930277ffffffffffffffff0000000000000000ffffffffffffffff19909416179290921783558b88526004909652848720805460ff60e01b1942909316600160a01b026001600160e01b03199091169094179390931716600160e01b17825593890180865292909420805493949390911661236b57600054821461236b57805460208701516001600160401b0316600160a01b026001600160e01b03199091166001600160a01b038716171781555b5050604051869250600091506001600160a01b03841690600080516020612fd3833981519152908390a4505060018054810190555050565b606060006123b2836002612e81565b6123bd906002612e55565b6001600160401b038111156123d4576123d4612fa6565b6040519080825280601f01601f1916602001820160405280156123fe576020820181803683370190505b509050600360fc1b8160008151811061241957612419612f90565b60200101906001600160f81b031916908160001a905350600f60fb1b8160018151811061244857612448612f90565b60200101906001600160f81b031916908160001a905350600061246c846002612e81565b612477906001612e55565b90505b60018111156124ef576f181899199a1a9b1b9c1cb0b131b232b360811b85600f16601081106124ab576124ab612f90565b1a60f81b8282815181106124c1576124c1612f90565b60200101906001600160f81b031916908160001a90535060049490941c936124e881612ee3565b905061247a565b5083156119615760405162461bcd60e51b815260206004820181905260248201527f537472696e67733a20686578206c656e67746820696e73756666696369656e7460448201526064016108a2565b6000546001600160a01b03841661256757604051622e076360e81b815260040160405180910390fd5b826125855760405163b562e8dd60e01b815260040160405180910390fd5b6001600160a01b038416600081815260056020908152604080832080546fffffffffffffffffffffffffffffffff1981166001600160401b038083168b018116918217600160401b67ffffffffffffffff1990941690921783900481168b01811690920217909155858452600490925290912080546001600160e01b0319168317600160a01b42909316929092029190911790558190818501903b15612696575b60405182906001600160a01b03881690600090600080516020612fd3833981519152908290a461265f6000878480600101955087611f8d565b61267c576040516368d2bf6b60e11b815260040160405180910390fd5b80821061262657826000541461269157600080fd5b6126c9565b5b6040516001830192906001600160a01b03881690600090600080516020612fd3833981519152908290a4808210612697575b5060009081556116709085838684565b8280546126e590612efa565b90600052602060002090601f016020900481019282612707576000855561274d565b82601f1061272057805160ff191683800117855561274d565b8280016001018555821561274d579182015b8281111561274d578251825591602001919060010190612732565b506127599291506127d1565b5090565b82805461276990612efa565b90600052602060002090601f01602090048101928261278b576000855561274d565b82601f106127a45782800160ff1982351617855561274d565b8280016001018555821561274d579182015b8281111561274d5782358255916020019190600101906127b6565b5b8082111561275957600081556001016127d2565b60006001600160401b038084111561280057612800612fa6565b604051601f8501601f19908116603f0116810190828211818310171561282857612828612fa6565b8160405280935085815286868601111561284157600080fd5b858560208301376000602087830101525050509392505050565b80356001600160a01b038116811461134357600080fd5b60006020828403121561288457600080fd5b6119618261285b565b600080604083850312156128a057600080fd5b6128a98361285b565b91506128b76020840161285b565b90509250929050565b6000806000606084860312156128d557600080fd5b6128de8461285b565b92506128ec6020850161285b565b9150604084013590509250925092565b6000806000806080858703121561291257600080fd5b61291b8561285b565b93506129296020860161285b565b92506040850135915060608501356001600160401b0381111561294b57600080fd5b8501601f8101871361295c57600080fd5b61296b878235602084016127e6565b91505092959194509250565b6000806040838503121561298a57600080fd5b6129938361285b565b9150602083013580151581146129a857600080fd5b809150509250929050565b600080604083850312156129c657600080fd5b6129cf8361285b565b946020939093013593505050565b600080604083850312156129f057600080fd5b6129f98361285b565b915060208301356001600160601b03811681146129a857600080fd5b600060208284031215612a2757600080fd5b5035919050565b60008060408385031215612a4157600080fd5b823591506128b76020840161285b565b600060208284031215612a6357600080fd5b813561196181612fbc565b600060208284031215612a8057600080fd5b815161196181612fbc565b60008060208385031215612a9e57600080fd5b82356001600160401b0380821115612ab557600080fd5b818501915085601f830112612ac957600080fd5b813581811115612ad857600080fd5b866020828501011115612aea57600080fd5b60209290920196919550909350505050565b600060208284031215612b0e57600080fd5b81356001600160401b03811115612b2457600080fd5b8201601f81018413612b3557600080fd5b61207d848235602084016127e6565b600060208284031215612b5657600080fd5b813560ff8116811461196157600080fd5b60008151808452612b7f816020860160208601612eb7565b601f01601f19169290920160200192915050565b60008351612ba5818460208801612eb7565b835190830190612bb9818360208801612eb7565b01949350505050565b7f416363657373436f6e74726f6c3a206163636f756e7420000000000000000000815260008351612bfa816017850160208801612eb7565b7001034b99036b4b9b9b4b733903937b6329607d1b6017918401918201528351612c2b816028840160208801612eb7565b01602801949350505050565b6001600160a01b0385811682528416602082015260408101839052608060608201819052600090612c6a90830184612b67565b9695505050505050565b6020815260006119616020830184612b67565b60208082526027908201527f5b43616e6e61746861694d696e744e46542e7768656e4e6f745061757365645d6040820152660814185d5cd95960ca1b606082015260800190565b6020808252603f908201527f5b43616e6e61746861694d696e744e46542e7768656e5072697661746553616c60408201527f654e6f745061757365645d20507269766174652053616c652050617573656400606082015260800190565b6020808252818101527f4f776e61626c653a2063616c6c6572206973206e6f7420746865206f776e6572604082015260600190565b60208082526028908201527f5b43616e6e61746861694d696e744e46542e7768656e5061757365645d204e6f6040820152671d0814185d5cd95960c21b606082015260800190565b6020808252603d908201527f5b43616e6e61746861694d696e744e46542e7768656e5075626c696353616c6560408201527f4e6f745061757365645d205075626c69632053616c6520506175736564000000606082015260800190565b60208082526030908201527f5b43616e6e61746861694d696e744e46542e7768656e4275726e4e6f7450617560408201526f1cd9591748109d5c9b8814185d5cd95960821b606082015260800190565b60008219821115612e6857612e68612f64565b500190565b600082612e7c57612e7c612f7a565b500490565b6000816000190483118215151615612e9b57612e9b612f64565b500290565b600082821015612eb257612eb2612f64565b500390565b60005b83811015612ed2578181015183820152602001612eba565b838111156116705750506000910152565b600081612ef257612ef2612f64565b506000190190565b600181811c90821680612f0e57607f821691505b60208210811415612f2f57634e487b7160e01b600052602260045260246000fd5b50919050565b6000600019821415612f4957612f49612f64565b5060010190565b600082612f5f57612f5f612f7a565b500690565b634e487b7160e01b600052601160045260246000fd5b634e487b7160e01b600052601260045260246000fd5b634e487b7160e01b600052603260045260246000fd5b634e487b7160e01b600052604160045260246000fd5b6001600160e01b031981168114610c2357600080fdfeddf252ad1be2c89b69c2b068fc378daa952ba7f163c4a11628f55a4df523b3efa26469706673582212202415bec5110cc28140687ccac57393bc9d179aebf645fd856173ae54a63e482f64736f6c63430008070033",
  "linkReferences": {},
  "deployedLinkReferences": {}
}