{
  "_format": "hh-sol-artifact-1",
  "contractName": "IronFairiesNFT",
  "sourceName": "contracts/IronFairiesNFT.sol",
  "abi": [
    {
      "inputs": [
        {
          "internalType": "uint96",
          "name": "_royaltyFeesInBips",
          "type": "uint96"
        },
        {
          "internalType": "string",
          "name": "_contractURI",
          "type": "string"
        },
        {
          "internalType": "string",
          "name": "_baseURIstring",
          "type": "string"
        }
      ],
      "stateMutability": "nonpayable",
      "type": "constructor"
    },
    {
      "inputs": [],
      "name": "ApprovalCallerNotOwnerNorApproved",
      "type": "error"
    },
    {
      "inputs": [],
      "name": "ApprovalQueryForNonexistentToken",
      "type": "error"
    },
    {
      "inputs": [],
      "name": "ApprovalToCurrentOwner",
      "type": "error"
    },
    {
      "inputs": [],
      "name": "ApproveToCaller",
      "type": "error"
    },
    {
      "inputs": [],
      "name": "BalanceQueryForZeroAddress",
      "type": "error"
    },
    {
      "inputs": [],
      "name": "MintToZeroAddress",
      "type": "error"
    },
    {
      "inputs": [],
      "name": "MintZeroQuantity",
      "type": "error"
    },
    {
      "inputs": [],
      "name": "OwnerQueryForNonexistentToken",
      "type": "error"
    },
    {
      "inputs": [],
      "name": "TransferCallerNotOwnerNorApproved",
      "type": "error"
    },
    {
      "inputs": [],
      "name": "TransferFromIncorrectOwner",
      "type": "error"
    },
    {
      "inputs": [],
      "name": "TransferToNonERC721ReceiverImplementer",
      "type": "error"
    },
    {
      "inputs": [],
      "name": "TransferToZeroAddress",
      "type": "error"
    },
    {
      "inputs": [],
      "name": "URIQueryForNonexistentToken",
      "type": "error"
    },
    {
      "anonymous": false,
      "inputs": [
        {
          "indexed": true,
          "internalType": "address",
          "name": "owner",
          "type": "address"
        },
        {
          "indexed": true,
          "internalType": "address",
          "name": "approved",
          "type": "address"
        },
        {
          "indexed": true,
          "internalType": "uint256",
          "name": "tokenId",
          "type": "uint256"
        }
      ],
      "name": "Approval",
      "type": "event"
    },
    {
      "anonymous": false,
      "inputs": [
        {
          "indexed": true,
          "internalType": "address",
          "name": "owner",
          "type": "address"
        },
        {
          "indexed": true,
          "internalType": "address",
          "name": "operator",
          "type": "address"
        },
        {
          "indexed": false,
          "internalType": "bool",
          "name": "approved",
          "type": "bool"
        }
      ],
      "name": "ApprovalForAll",
      "type": "event"
    },
    {
      "anonymous": false,
      "inputs": [
        {
          "indexed": true,
          "internalType": "address",
          "name": "previousOwner",
          "type": "address"
        },
        {
          "indexed": true,
          "internalType": "address",
          "name": "newOwner",
          "type": "address"
        }
      ],
      "name": "OwnershipTransferred",
      "type": "event"
    },
    {
      "anonymous": false,
      "inputs": [
        {
          "indexed": true,
          "internalType": "bytes32",
          "name": "role",
          "type": "bytes32"
        },
        {
          "indexed": true,
          "internalType": "bytes32",
          "name": "previousAdminRole",
          "type": "bytes32"
        },
        {
          "indexed": true,
          "internalType": "bytes32",
          "name": "newAdminRole",
          "type": "bytes32"
        }
      ],
      "name": "RoleAdminChanged",
      "type": "event"
    },
    {
      "anonymous": false,
      "inputs": [
        {
          "indexed": true,
          "internalType": "bytes32",
          "name": "role",
          "type": "bytes32"
        },
        {
          "indexed": true,
          "internalType": "address",
          "name": "account",
          "type": "address"
        },
        {
          "indexed": true,
          "internalType": "address",
          "name": "sender",
          "type": "address"
        }
      ],
      "name": "RoleGranted",
      "type": "event"
    },
    {
      "anonymous": false,
      "inputs": [
        {
          "indexed": true,
          "internalType": "bytes32",
          "name": "role",
          "type": "bytes32"
        },
        {
          "indexed": true,
          "internalType": "address",
          "name": "account",
          "type": "address"
        },
        {
          "indexed": true,
          "internalType": "address",
          "name": "sender",
          "type": "address"
        }
      ],
      "name": "RoleRevoked",
      "type": "event"
    },
    {
      "anonymous": false,
      "inputs": [
        {
          "indexed": true,
          "internalType": "address",
          "name": "from",
          "type": "address"
        },
        {
          "indexed": true,
          "internalType": "address",
          "name": "to",
          "type": "address"
        },
        {
          "indexed": true,
          "internalType": "uint256",
          "name": "tokenId",
          "type": "uint256"
        }
      ],
      "name": "Transfer",
      "type": "event"
    },
    {
      "inputs": [],
      "name": "DEFAULT_ADMIN_ROLE",
      "outputs": [
        {
          "internalType": "bytes32",
          "name": "",
          "type": "bytes32"
        }
      ],
      "stateMutability": "view",
      "type": "function"
    },
    {
      "inputs": [],
      "name": "NFT_ADMIN",
      "outputs": [
        {
          "internalType": "bytes32",
          "name": "",
          "type": "bytes32"
        }
      ],
      "stateMutability": "view",
      "type": "function"
    },
    {
      "inputs": [
        {
          "internalType": "address",
          "name": "to",
          "type": "address"
        },
        {
          "internalType": "uint256",
          "name": "tokenId",
          "type": "uint256"
        }
      ],
      "name": "approve",
      "outputs": [],
      "stateMutability": "nonpayable",
      "type": "function"
    },
    {
      "inputs": [
        {
          "internalType": "address",
          "name": "owner",
          "type": "address"
        }
      ],
      "name": "balanceOf",
      "outputs": [
        {
          "internalType": "uint256",
          "name": "",
          "type": "uint256"
        }
      ],
      "stateMutability": "view",
      "type": "function"
    },
    {
      "inputs": [],
      "name": "baseURI",
      "outputs": [
        {
          "internalType": "string",
          "name": "",
          "type": "string"
        }
      ],
      "stateMutability": "view",
      "type": "function"
    },
    {
      "inputs": [
        {
          "internalType": "uint256",
          "name": "_tokenId",
          "type": "uint256"
        }
      ],
      "name": "burnNFT",
      "outputs": [],
      "stateMutability": "nonpayable",
      "type": "function"
    },
    {
      "inputs": [
        {
          "internalType": "uint256",
          "name": "_salePrice",
          "type": "uint256"
        }
      ],
      "name": "calculateRoyalty",
      "outputs": [
        {
          "internalType": "uint256",
          "name": "",
          "type": "uint256"
        }
      ],
      "stateMutability": "view",
      "type": "function"
    },
    {
      "inputs": [],
      "name": "contractURI",
      "outputs": [
        {
          "internalType": "string",
          "name": "",
          "type": "string"
        }
      ],
      "stateMutability": "view",
      "type": "function"
    },
    {
      "inputs": [
        {
          "internalType": "uint256",
          "name": "tokenId",
          "type": "uint256"
        }
      ],
      "name": "getApproved",
      "outputs": [
        {
          "internalType": "address",
          "name": "",
          "type": "address"
        }
      ],
      "stateMutability": "view",
      "type": "function"
    },
    {
      "inputs": [
        {
          "internalType": "bytes32",
          "name": "role",
          "type": "bytes32"
        }
      ],
      "name": "getRoleAdmin",
      "outputs": [
        {
          "internalType": "bytes32",
          "name": "",
          "type": "bytes32"
        }
      ],
      "stateMutability": "view",
      "type": "function"
    },
    {
      "inputs": [
        {
          "internalType": "bytes32",
          "name": "role",
          "type": "bytes32"
        },
        {
          "internalType": "address",
          "name": "account",
          "type": "address"
        }
      ],
      "name": "grantRole",
      "outputs": [],
      "stateMutability": "nonpayable",
      "type": "function"
    },
    {
      "inputs": [
        {
          "internalType": "bytes32",
          "name": "role",
          "type": "bytes32"
        },
        {
          "internalType": "address",
          "name": "account",
          "type": "address"
        }
      ],
      "name": "hasRole",
      "outputs": [
        {
          "internalType": "bool",
          "name": "",
          "type": "bool"
        }
      ],
      "stateMutability": "view",
      "type": "function"
    },
    {
      "inputs": [
        {
          "internalType": "address",
          "name": "owner",
          "type": "address"
        },
        {
          "internalType": "address",
          "name": "operator",
          "type": "address"
        }
      ],
      "name": "isApprovedForAll",
      "outputs": [
        {
          "internalType": "bool",
          "name": "",
          "type": "bool"
        }
      ],
      "stateMutability": "view",
      "type": "function"
    },
    {
      "inputs": [
        {
          "internalType": "uint8",
          "name": "quantity",
          "type": "uint8"
        }
      ],
      "name": "mintPrivateSale",
      "outputs": [],
      "stateMutability": "payable",
      "type": "function"
    },
    {
      "inputs": [
        {
          "internalType": "uint8",
          "name": "quantity",
          "type": "uint8"
        }
      ],
      "name": "mintPublicSale",
      "outputs": [],
      "stateMutability": "payable",
      "type": "function"
    },
    {
      "inputs": [],
      "name": "name",
      "outputs": [
        {
          "internalType": "string",
          "name": "",
          "type": "string"
        }
      ],
      "stateMutability": "view",
      "type": "function"
    },
    {
      "inputs": [],
      "name": "owner",
      "outputs": [
        {
          "internalType": "address",
          "name": "",
          "type": "address"
        }
      ],
      "stateMutability": "view",
      "type": "function"
    },
    {
      "inputs": [
        {
          "internalType": "uint256",
          "name": "tokenId",
          "type": "uint256"
        }
      ],
      "name": "ownerOf",
      "outputs": [
        {
          "internalType": "address",
          "name": "",
          "type": "address"
        }
      ],
      "stateMutability": "view",
      "type": "function"
    },
    {
      "inputs": [],
      "name": "pause",
      "outputs": [],
      "stateMutability": "nonpayable",
      "type": "function"
    },
    {
      "inputs": [],
      "name": "pausePrivateSale",
      "outputs": [],
      "stateMutability": "nonpayable",
      "type": "function"
    },
    {
      "inputs": [],
      "name": "pausePublicSale",
      "outputs": [],
      "stateMutability": "nonpayable",
      "type": "function"
    },
    {
      "inputs": [],
      "name": "presaleCost",
      "outputs": [
        {
          "internalType": "uint256",
          "name": "",
          "type": "uint256"
        }
      ],
      "stateMutability": "view",
      "type": "function"
    },
    {
      "inputs": [],
      "name": "publicsaleCost",
      "outputs": [
        {
          "internalType": "uint256",
          "name": "",
          "type": "uint256"
        }
      ],
      "stateMutability": "view",
      "type": "function"
    },
    {
      "inputs": [],
      "name": "renounceOwnership",
      "outputs": [],
      "stateMutability": "nonpayable",
      "type": "function"
    },
    {
      "inputs": [
        {
          "internalType": "bytes32",
          "name": "role",
          "type": "bytes32"
        },
        {
          "internalType": "address",
          "name": "account",
          "type": "address"
        }
      ],
      "name": "renounceRole",
      "outputs": [],
      "stateMutability": "nonpayable",
      "type": "function"
    },
    {
      "inputs": [
        {
          "internalType": "bytes32",
          "name": "role",
          "type": "bytes32"
        },
        {
          "internalType": "address",
          "name": "account",
          "type": "address"
        }
      ],
      "name": "revokeRole",
      "outputs": [],
      "stateMutability": "nonpayable",
      "type": "function"
    },
    {
      "inputs": [
        {
          "internalType": "uint256",
          "name": "_salePrice",
          "type": "uint256"
        }
      ],
      "name": "royaltyInfo",
      "outputs": [
        {
          "internalType": "address",
          "name": "",
          "type": "address"
        },
        {
          "internalType": "uint256",
          "name": "",
          "type": "uint256"
        }
      ],
      "stateMutability": "view",
      "type": "function"
    },
    {
      "inputs": [
        {
          "internalType": "address",
          "name": "from",
          "type": "address"
        },
        {
          "internalType": "address",
          "name": "to",
          "type": "address"
        },
        {
          "internalType": "uint256",
          "name": "tokenId",
          "type": "uint256"
        }
      ],
      "name": "safeTransferFrom",
      "outputs": [],
      "stateMutability": "nonpayable",
      "type": "function"
    },
    {
      "inputs": [
        {
          "internalType": "address",
          "name": "from",
          "type": "address"
        },
        {
          "internalType": "address",
          "name": "to",
          "type": "address"
        },
        {
          "internalType": "uint256",
          "name": "tokenId",
          "type": "uint256"
        },
        {
          "internalType": "bytes",
          "name": "_data",
          "type": "bytes"
        }
      ],
      "name": "safeTransferFrom",
      "outputs": [],
      "stateMutability": "nonpayable",
      "type": "function"
    },
    {
      "inputs": [
        {
          "internalType": "address",
          "name": "operator",
          "type": "address"
        },
        {
          "internalType": "bool",
          "name": "approved",
          "type": "bool"
        }
      ],
      "name": "setApprovalForAll",
      "outputs": [],
      "stateMutability": "nonpayable",
      "type": "function"
    },
    {
      "inputs": [
        {
          "internalType": "string",
          "name": "_baseURIstring",
          "type": "string"
        }
      ],
      "name": "setBaseURI",
      "outputs": [],
      "stateMutability": "nonpayable",
      "type": "function"
    },
    {
      "inputs": [
        {
          "internalType": "string",
          "name": "_contractURI",
          "type": "string"
        }
      ],
      "name": "setContractURI",
      "outputs": [],
      "stateMutability": "nonpayable",
      "type": "function"
    },
    {
      "inputs": [
        {
          "internalType": "uint256",
          "name": "_newCost",
          "type": "uint256"
        }
      ],
      "name": "setPresaleCost",
      "outputs": [],
      "stateMutability": "nonpayable",
      "type": "function"
    },
    {
      "inputs": [
        {
          "internalType": "uint256",
          "name": "_newCost",
          "type": "uint256"
        }
      ],
      "name": "setPublicCost",
      "outputs": [],
      "stateMutability": "nonpayable",
      "type": "function"
    },
    {
      "inputs": [
        {
          "internalType": "address",
          "name": "_receiver",
          "type": "address"
        },
        {
          "internalType": "uint96",
          "name": "_royaltyFeesInBips",
          "type": "uint96"
        }
      ],
      "name": "setRoyaltyInfo",
      "outputs": [],
      "stateMutability": "nonpayable",
      "type": "function"
    },
    {
      "inputs": [
        {
          "internalType": "bytes4",
          "name": "interfaceId",
          "type": "bytes4"
        }
      ],
      "name": "supportsInterface",
      "outputs": [
        {
          "internalType": "bool",
          "name": "",
          "type": "bool"
        }
      ],
      "stateMutability": "view",
      "type": "function"
    },
    {
      "inputs": [],
      "name": "symbol",
      "outputs": [
        {
          "internalType": "string",
          "name": "",
          "type": "string"
        }
      ],
      "stateMutability": "view",
      "type": "function"
    },
    {
      "inputs": [
        {
          "internalType": "uint256",
          "name": "tokenId",
          "type": "uint256"
        }
      ],
      "name": "tokenURI",
      "outputs": [
        {
          "internalType": "string",
          "name": "",
          "type": "string"
        }
      ],
      "stateMutability": "view",
      "type": "function"
    },
    {
      "inputs": [],
      "name": "totalPrivateSaleMint",
      "outputs": [
        {
          "internalType": "uint256",
          "name": "",
          "type": "uint256"
        }
      ],
      "stateMutability": "view",
      "type": "function"
    },
    {
      "inputs": [],
      "name": "totalPublicSaleMint",
      "outputs": [
        {
          "internalType": "uint256",
          "name": "",
          "type": "uint256"
        }
      ],
      "stateMutability": "view",
      "type": "function"
    },
    {
      "inputs": [],
      "name": "totalSupply",
      "outputs": [
        {
          "internalType": "uint256",
          "name": "",
          "type": "uint256"
        }
      ],
      "stateMutability": "view",
      "type": "function"
    },
    {
      "inputs": [
        {
          "internalType": "address",
          "name": "from",
          "type": "address"
        },
        {
          "internalType": "address",
          "name": "to",
          "type": "address"
        },
        {
          "internalType": "uint256",
          "name": "tokenId",
          "type": "uint256"
        }
      ],
      "name": "transferFrom",
      "outputs": [],
      "stateMutability": "nonpayable",
      "type": "function"
    },
    {
      "inputs": [
        {
          "internalType": "address",
          "name": "newOwner",
          "type": "address"
        }
      ],
      "name": "transferOwnership",
      "outputs": [],
      "stateMutability": "nonpayable",
      "type": "function"
    },
    {
      "inputs": [],
      "name": "unpause",
      "outputs": [],
      "stateMutability": "nonpayable",
      "type": "function"
    },
    {
      "inputs": [],
      "name": "unpausePrivateSale",
      "outputs": [],
      "stateMutability": "nonpayable",
      "type": "function"
    },
    {
      "inputs": [],
      "name": "unpausePublicSale",
      "outputs": [],
      "stateMutability": "nonpayable",
      "type": "function"
    }
  ],
  "bytecode": "0x6080604052600b80546001600160481b0319166823f0012c2710320a051790556000600c819055600d553480156200003657600080fd5b50604051620032f7380380620032f7833981016040819052620000599162000427565b604080518082018252600e81526d125c9bdb91985a5c9a595cd3919560921b60208083019182528351808501909452600384526224a32760e91b908401528151919291620000aa91600291620002ca565b508051620000c0906003906020840190620002ca565b50506000805550620000d233620001bb565b6001600955601080546001600160601b0319166001600160601b038516179055620001056008546001600160a01b031690565b601080546001600160a01b03929092166c01000000000000000000000000026001600160601b0390921691909117905581516200014a90600e906020850190620002ca565b5080516200016090600f906020840190620002ca565b506200017860116200020d60201b620018771760201c565b6200018f60126200020d60201b620018771760201c565b601380546001600160a01b03191633908117909155620001b29060009062000216565b50505062000504565b600880546001600160a01b038381166001600160a01b0319831681179093556040519116919082907f8be0079c531659141344cd1fd0a4f28419497f9722a3daafe3b4186f6b6457e090600090a35050565b80546001019055565b62000222828262000226565b5050565b6000828152600a602090815260408083206001600160a01b038516845290915290205460ff1662000222576000828152600a602090815260408083206001600160a01b03851684529091529020805460ff19166001179055620002863390565b6001600160a01b0316816001600160a01b0316837f2f8788117e7eff1d82e926ec794901d17c78024a50270940304540a733656f0d60405160405180910390a45050565b828054620002d890620004b1565b90600052602060002090601f016020900481019282620002fc576000855562000347565b82601f106200031757805160ff191683800117855562000347565b8280016001018555821562000347579182015b82811115620003475782518255916020019190600101906200032a565b506200035592915062000359565b5090565b5b808211156200035557600081556001016200035a565b600082601f8301126200038257600080fd5b81516001600160401b03808211156200039f576200039f620004ee565b604051601f8301601f19908116603f01168101908282118183101715620003ca57620003ca620004ee565b81604052838152602092508683858801011115620003e757600080fd5b600091505b838210156200040b5785820183015181830184015290820190620003ec565b838211156200041d5760008385830101525b9695505050505050565b6000806000606084860312156200043d57600080fd5b83516001600160601b03811681146200045557600080fd5b60208501519093506001600160401b03808211156200047357600080fd5b620004818783880162000370565b935060408601519150808211156200049857600080fd5b50620004a78682870162000370565b9150509250925092565b600181811c90821680620004c657607f821691505b60208210811415620004e857634e487b7160e01b600052602260045260246000fd5b50919050565b634e487b7160e01b600052604160045260246000fd5b612de380620005146000396000f3fe60806040526004361061027d5760003560e01c806370a082311161014f578063a22cb465116100c1578063cbc4b1421161007a578063cbc4b14214610735578063cef6d3681461074a578063d547741f14610789578063e8a3d485146107a9578063e985e9c5146107be578063f2fde38b1461080757600080fd5b8063a22cb4651461068f578063a2e69613146106af578063a76824d7146106cf578063b88d4fde146106e2578063c31f2d1d14610702578063c87b56dd1461071557600080fd5b80638fdcf942116101135780638fdcf942146105ef57806391d148541461060f57806392829d741461062f578063938e3d7b1461064557806395d89b4114610665578063a217fddf1461067a57600080fd5b806370a0823114610567578063715018a614610587578063811d24371461059c5780638456cb59146105bc5780638da5cb5b146105d157600080fd5b80632890e0d7116101f357806336568abe116101ac57806336568abe146104bd5780633f4ba83a146104dd57806342842e0e146104f257806355f804b3146105125780636352211e146105325780636c0360eb1461055257600080fd5b80632890e0d7146104095780632a23d07d146104295780632be1c84c1461043f5780632d471e9e146104545780632f2ff15d1461048857806335d62f9e146104a857600080fd5b8063095ea7b311610245578063095ea7b3146103565780630c41f4971461037657806318160ddd1461038b57806318736df8146103a457806323b872dd146103b9578063248a9ca3146103d957600080fd5b806301ffc9a71461028257806302fa7c47146102b7578063039e21bf146102d957806306fdde03146102fc578063081812fc1461031e575b600080fd5b34801561028e57600080fd5b506102a261029d366004612860565b610827565b60405190151581526020015b60405180910390f35b3480156102c357600080fd5b506102d76102d23660046127ec565b610838565b005b3480156102e557600080fd5b506102ee6108c4565b6040519081526020016102ae565b34801561030857600080fd5b506103116108d4565b6040516102ae9190612a83565b34801561032a57600080fd5b5061033e610339366004612824565b610966565b6040516001600160a01b0390911681526020016102ae565b34801561036257600080fd5b506102d76103713660046127c2565b6109aa565b34801561038257600080fd5b506102d7610a7d565b34801561039757600080fd5b50600154600054036102ee565b3480156103b057600080fd5b506102d7610ae6565b3480156103c557600080fd5b506102d76103d43660046126cf565b610b9e565b3480156103e557600080fd5b506102ee6103f4366004612824565b6000908152600a602052604090206001015490565b34801561041557600080fd5b506102d7610424366004612824565b610bae565b34801561043557600080fd5b506102ee600c5481565b34801561044b57600080fd5b506102d7610c10565b34801561046057600080fd5b506102ee7facc28992f5e1c930a8d582286785d1843a6300cad9d482d45db9faface656f6281565b34801561049457600080fd5b506102d76104a336600461283d565b610cc8565b3480156104b457600080fd5b506102d7610cee565b3480156104c957600080fd5b506102d76104d836600461283d565b610d57565b3480156104e957600080fd5b506102d7610dd1565b3480156104fe57600080fd5b506102d761050d3660046126cf565b610e33565b34801561051e57600080fd5b506102d761052d36600461290b565b610e4e565b34801561053e57600080fd5b5061033e61054d366004612824565b610eb5565b34801561055e57600080fd5b50610311610ec7565b34801561057357600080fd5b506102ee610582366004612681565b610f55565b34801561059357600080fd5b506102d7610fa3565b3480156105a857600080fd5b506102d76105b7366004612824565b610fd9565b3480156105c857600080fd5b506102d7611031565b3480156105dd57600080fd5b506008546001600160a01b031661033e565b3480156105fb57600080fd5b506102d761060a366004612824565b61109a565b34801561061b57600080fd5b506102a261062a36600461283d565b6110f2565b34801561063b57600080fd5b506102ee600d5481565b34801561065157600080fd5b506102d761066036600461289a565b61111d565b34801561067157600080fd5b5061031161117d565b34801561068657600080fd5b506102ee600081565b34801561069b57600080fd5b506102d76106aa366004612786565b61118c565b3480156106bb57600080fd5b506102ee6106ca366004612824565b611222565b6102d76106dd366004612953565b611276565b3480156106ee57600080fd5b506102d76106fd36600461270b565b611497565b6102d7610710366004612953565b6114e1565b34801561072157600080fd5b50610311610730366004612824565b6116ef565b34801561074157600080fd5b506102ee611774565b34801561075657600080fd5b5061076a610765366004612824565b61177f565b604080516001600160a01b0390931683526020830191909152016102ae565b34801561079557600080fd5b506102d76107a436600461283d565b6117a9565b3480156107b557600080fd5b506103116117cf565b3480156107ca57600080fd5b506102a26107d936600461269c565b6001600160a01b03918216600090815260076020908152604080832093909416825291909152205460ff1690565b34801561081357600080fd5b506102d7610822366004612681565b6117dc565b600061083282611880565b92915050565b6008546001600160a01b0316331461086b5760405162461bcd60e51b815260040161086290612b38565b60405180910390fd5b601354600160a01b900460ff16156108955760405162461bcd60e51b815260040161086290612a96565b6001600160601b03166001600160a01b03909116600160601b026bffffffffffffffffffffffff191617601055565b60006108cf60115490565b905090565b6060600280546108e390612cb5565b80601f016020809104026020016040519081016040528092919081815260200182805461090f90612cb5565b801561095c5780601f106109315761010080835404028352916020019161095c565b820191906000526020600020905b81548152906001019060200180831161093f57829003601f168201915b5050505050905090565b6000610971826118a5565b61098e576040516333d1c03960e21b815260040160405180910390fd5b506000908152600660205260409020546001600160a01b031690565b60006109b582610eb5565b9050806001600160a01b0316836001600160a01b031614156109ea5760405163250fdee360e21b815260040160405180910390fd5b336001600160a01b03821614610a2157610a0481336107d9565b610a21576040516367d9dca160e11b815260040160405180910390fd5b60008281526006602052604080822080546001600160a01b0319166001600160a01b0387811691821790925591518593918516917f8c5be1e5ebec7d5bd14f71427d1e84f3dd0314c0f7b2291e5b200ac8c7c3b92591a4505050565b6008546001600160a01b03163314610aa75760405162461bcd60e51b815260040161086290612b38565b601354600160a81b900460ff1615610ad15760405162461bcd60e51b815260040161086290612adb565b6013805460ff60a81b1916600160a81b179055565b6008546001600160a01b03163314610b105760405162461bcd60e51b815260040161086290612b38565b601354600160b01b900460ff16610b8f5760405162461bcd60e51b815260206004820152603e60248201527f5b49726f6e466169726965734e46542e7768656e5072697661746553616c655060448201527f61757365645d20507269766174652053616c65204e6f742050617573656400006064820152608401610862565b6013805460ff60b01b19169055565b610ba98383836118d0565b505050565b601354600160a01b900460ff1615610bd85760405162461bcd60e51b815260040161086290612a96565b7facc28992f5e1c930a8d582286785d1843a6300cad9d482d45db9faface656f62610c038133611aba565b610c0c82611b1e565b5050565b6008546001600160a01b03163314610c3a5760405162461bcd60e51b815260040161086290612b38565b601354600160a81b900460ff16610cb95760405162461bcd60e51b815260206004820152603c60248201527f5b49726f6e466169726965734e46542e7768656e5075626c696353616c65506160448201527f757365645d205075626c69632053616c65204e6f7420506175736564000000006064820152608401610862565b6013805460ff60a81b19169055565b6000828152600a6020526040902060010154610ce48133611aba565b610ba98383611b29565b6008546001600160a01b03163314610d185760405162461bcd60e51b815260040161086290612b38565b601354600160b01b900460ff1615610d425760405162461bcd60e51b815260040161086290612b6d565b6013805460ff60b01b1916600160b01b179055565b6001600160a01b0381163314610dc75760405162461bcd60e51b815260206004820152602f60248201527f416363657373436f6e74726f6c3a2063616e206f6e6c792072656e6f756e636560448201526e103937b632b9903337b91039b2b63360891b6064820152608401610862565b610c0c8282611baf565b6008546001600160a01b03163314610dfb5760405162461bcd60e51b815260040161086290612b38565b601354600160a01b900460ff16610e245760405162461bcd60e51b815260040161086290612bca565b6013805460ff60a01b19169055565b610ba983838360405180602001604052806000815250611497565b6008546001600160a01b03163314610e785760405162461bcd60e51b815260040161086290612b38565b601354600160a01b900460ff1615610ea25760405162461bcd60e51b815260040161086290612a96565b8051610c0c90600f9060208401906124e8565b6000610ec082611c16565b5192915050565b600f8054610ed490612cb5565b80601f0160208091040260200160405190810160405280929190818152602001828054610f0090612cb5565b8015610f4d5780601f10610f2257610100808354040283529160200191610f4d565b820191906000526020600020905b815481529060010190602001808311610f3057829003601f168201915b505050505081565b60006001600160a01b038216610f7e576040516323d3ad8160e21b815260040160405180910390fd5b506001600160a01b03166000908152600560205260409020546001600160401b031690565b6008546001600160a01b03163314610fcd5760405162461bcd60e51b815260040161086290612b38565b610fd76000611d30565b565b6008546001600160a01b031633146110035760405162461bcd60e51b815260040161086290612b38565b601354600160a01b900460ff1661102c5760405162461bcd60e51b815260040161086290612bca565b600d55565b6008546001600160a01b0316331461105b5760405162461bcd60e51b815260040161086290612b38565b601354600160a01b900460ff16156110855760405162461bcd60e51b815260040161086290612a96565b6013805460ff60a01b1916600160a01b179055565b6008546001600160a01b031633146110c45760405162461bcd60e51b815260040161086290612b38565b601354600160a01b900460ff166110ed5760405162461bcd60e51b815260040161086290612bca565b600c55565b6000918252600a602090815260408084206001600160a01b0393909316845291905290205460ff1690565b6008546001600160a01b031633146111475760405162461bcd60e51b815260040161086290612b38565b601354600160a01b900460ff16156111715760405162461bcd60e51b815260040161086290612a96565b610ba9600e838361256c565b6060600380546108e390612cb5565b6001600160a01b0382163314156111b65760405163b06307db60e01b815260040160405180910390fd5b3360008181526007602090815260408083206001600160a01b03871680855290835292819020805460ff191686151590811790915590519081529192917f17307eab39ab6107e8899845ad3d59bd9653f200f220920489ca2b5937696c31910160405180910390a35050565b601354600090600160a01b900460ff161561124f5760405162461bcd60e51b815260040161086290612a96565b6010546001600160601b031661126761271084612c28565b6108329190612c3c565b919050565b600260095414156112c95760405162461bcd60e51b815260206004820152601f60248201527f5265656e7472616e637947756172643a207265656e7472616e742063616c6c006044820152606401610862565b6002600955601354600160b01b900460ff16156112f85760405162461bcd60e51b815260040161086290612b6d565b600b54336000908152600560205260409020546201000090910460ff1690600160401b90046001600160401b03166113339060ff8416612c10565b11156113765760405162461bcd60e51b8152602060048201526012602482015271115e18d959591959081d1a19481b1a5b5a5d60721b6044820152606401610862565b600b546301000000900461ffff1660ff82166113956001546000540390565b61139f9190612c10565b11156113e65760405162461bcd60e51b8152602060048201526016602482015275139bdd08195b9bdd59da081d1bdad95b9cc81b19599d60521b6044820152606401610862565b8060ff16600c546113f79190612c3c565b34101561140357600080fd5b600b5461ffff650100000000009091041661141d60115490565b1061142757600080fd5b601354600c546001600160a01b03909116906108fc9061144b9060ff851690612c3c565b6040518115909202916000818181858888f19350505050158015611473573d6000803e3d6000fd5b50611482601180546001019055565b61148f338260ff16611d82565b506001600955565b6114a28484846118d0565b6001600160a01b0383163b156114db576114be84848484611d9c565b6114db576040516368d2bf6b60e11b815260040160405180910390fd5b50505050565b600260095414156115345760405162461bcd60e51b815260206004820152601f60248201527f5265656e7472616e637947756172643a207265656e7472616e742063616c6c006044820152606401610862565b6002600955601354600160a81b900460ff16156115635760405162461bcd60e51b815260040161086290612adb565b600b54336000908152600560205260409020546201000090910460ff1690600160401b90046001600160401b031661159e9060ff8416612c10565b11156115e15760405162461bcd60e51b8152602060048201526012602482015271115e18d959591959081d1a19481b1a5b5a5d60721b6044820152606401610862565b600b546301000000900461ffff1660ff82166116006001546000540390565b61160a9190612c10565b11156116515760405162461bcd60e51b8152602060048201526016602482015275139bdd08195b9bdd59da081d1bdad95b9cc81b19599d60521b6044820152606401610862565b8060ff16600d546116629190612c3c565b34101561166e57600080fd5b600b5461ffff6701000000000000009091041661168a60125490565b1061169457600080fd5b601354600d546001600160a01b03909116906108fc906116b89060ff851690612c3c565b6040518115909202916000818181858888f193505050501580156116e0573d6000803e3d6000fd5b50611482601280546001019055565b60606116fa826118a5565b61171757604051630a14c4b560e41b815260040160405180910390fd5b6000611721611e94565b9050805160001415611742576040518060200160405280600081525061176d565b8061174c84611ea3565b60405160200161175d9291906129a2565b6040516020818303038152906040525b9392505050565b60006108cf60125490565b6010546000908190600160601b90046001600160a01b03166117a084611222565b91509150915091565b6000828152600a60205260409020600101546117c58133611aba565b610ba98383611baf565b600e8054610ed490612cb5565b6008546001600160a01b031633146118065760405162461bcd60e51b815260040161086290612b38565b6001600160a01b03811661186b5760405162461bcd60e51b815260206004820152602660248201527f4f776e61626c653a206e6577206f776e657220697320746865207a65726f206160448201526564647265737360d01b6064820152608401610862565b61187481611d30565b50565b80546001019055565b60006001600160e01b03198216637965db0b60e01b1480610832575061083282611fa0565b6000805482108015610832575050600090815260046020526040902054600160e01b900460ff161590565b60006118db82611c16565b9050836001600160a01b031681600001516001600160a01b0316146119125760405162a1148160e81b815260040160405180910390fd5b6000336001600160a01b0386161480611930575061193085336107d9565b8061194b57503361194084610966565b6001600160a01b0316145b90508061196b57604051632ce44b5f60e11b815260040160405180910390fd5b6001600160a01b03841661199257604051633a954ecd60e21b815260040160405180910390fd5b600083815260066020908152604080832080546001600160a01b03191690556001600160a01b03888116845260058352818420805467ffffffffffffffff198082166001600160401b0392831660001901831617909255898316808752848720805493841693831660019081018416949094179055898752600490955283862080546001600160e01b031916909517600160a01b4290921691909102178455870180855291909320805492939192909116611a81576000548214611a8157805460208601516001600160401b0316600160a01b026001600160e01b03199091166001600160a01b038a16171781555b50505082846001600160a01b0316866001600160a01b0316600080516020612d8e83398151915260405160405180910390a45050505050565b611ac482826110f2565b610c0c57611adc816001600160a01b03166014611ff0565b611ae7836020611ff0565b604051602001611af89291906129d1565b60408051601f198184030181529082905262461bcd60e51b825261086291600401612a83565b61187481600061218b565b611b3382826110f2565b610c0c576000828152600a602090815260408083206001600160a01b03851684529091529020805460ff19166001179055611b6b3390565b6001600160a01b0316816001600160a01b0316837f2f8788117e7eff1d82e926ec794901d17c78024a50270940304540a733656f0d60405160405180910390a45050565b611bb982826110f2565b15610c0c576000828152600a602090815260408083206001600160a01b0385168085529252808320805460ff1916905551339285917ff6391f5c32d9c69d2a47ea670b442974b53935d1edc7fd64eb21e047a839171b9190a45050565b604080516060810182526000808252602082018190529181019190915281600054811015611d1757600081815260046020908152604091829020825160608101845290546001600160a01b0381168252600160a01b81046001600160401b031692820192909252600160e01b90910460ff16151591810182905290611d155780516001600160a01b031615611cac579392505050565b5060001901600081815260046020908152604091829020825160608101845290546001600160a01b038116808352600160a01b82046001600160401b031693830193909352600160e01b900460ff1615159281019290925215611d10579392505050565b611cac565b505b604051636f96cda160e11b815260040160405180910390fd5b600880546001600160a01b038381166001600160a01b0319831681179093556040519116919082907f8be0079c531659141344cd1fd0a4f28419497f9722a3daafe3b4186f6b6457e090600090a35050565b610c0c82826040518060200160405280600081525061234d565b604051630a85bd0160e11b81526000906001600160a01b0385169063150b7a0290611dd1903390899088908890600401612a46565b602060405180830381600087803b158015611deb57600080fd5b505af1925050508015611e1b575060408051601f3d908101601f19168201909252611e189181019061287d565b60015b611e76573d808015611e49576040519150601f19603f3d011682016040523d82523d6000602084013e611e4e565b606091505b508051611e6e576040516368d2bf6b60e11b815260040160405180910390fd5b805181602001fd5b6001600160e01b031916630a85bd0160e11b1490505b949350505050565b6060600f80546108e390612cb5565b606081611ec75750506040805180820190915260018152600360fc1b602082015290565b8160005b8115611ef15780611edb81612cf0565b9150611eea9050600a83612c28565b9150611ecb565b6000816001600160401b03811115611f0b57611f0b612d61565b6040519080825280601f01601f191660200182016040528015611f35576020820181803683370190505b5090505b8415611e8c57611f4a600183612c5b565b9150611f57600a86612d0b565b611f62906030612c10565b60f81b818381518110611f7757611f77612d4b565b60200101906001600160f81b031916908160001a905350611f99600a86612c28565b9450611f39565b60006001600160e01b031982166380ac58cd60e01b1480611fd157506001600160e01b03198216635b5e139f60e01b145b8061083257506301ffc9a760e01b6001600160e01b0319831614610832565b60606000611fff836002612c3c565b61200a906002612c10565b6001600160401b0381111561202157612021612d61565b6040519080825280601f01601f19166020018201604052801561204b576020820181803683370190505b509050600360fc1b8160008151811061206657612066612d4b565b60200101906001600160f81b031916908160001a905350600f60fb1b8160018151811061209557612095612d4b565b60200101906001600160f81b031916908160001a90535060006120b9846002612c3c565b6120c4906001612c10565b90505b600181111561213c576f181899199a1a9b1b9c1cb0b131b232b360811b85600f16601081106120f8576120f8612d4b565b1a60f81b82828151811061210e5761210e612d4b565b60200101906001600160f81b031916908160001a90535060049490941c9361213581612c9e565b90506120c7565b50831561176d5760405162461bcd60e51b815260206004820181905260248201527f537472696e67733a20686578206c656e67746820696e73756666696369656e746044820152606401610862565b600061219683611c16565b805190915082156121fc576000336001600160a01b03831614806121bf57506121bf82336107d9565b806121da5750336121cf86610966565b6001600160a01b0316145b9050806121fa57604051632ce44b5f60e11b815260040160405180910390fd5b505b600084815260066020908152604080832080546001600160a01b03191690556001600160a01b03848116808552600584528285208054600160801b6000196001600160401b0380841691909101811667ffffffffffffffff198416811783900482166001908101831690930277ffffffffffffffff0000000000000000ffffffffffffffff19909416179290921783558b88526004909652848720805460ff60e01b1942909316600160a01b026001600160e01b03199091169094179390931716600160e01b17825593890180865292909420805493949390911661231557600054821461231557805460208701516001600160401b0316600160a01b026001600160e01b03199091166001600160a01b038716171781555b5050604051869250600091506001600160a01b03841690600080516020612d8e833981519152908390a4505060018054810190555050565b6000546001600160a01b03841661237657604051622e076360e81b815260040160405180910390fd5b826123945760405163b562e8dd60e01b815260040160405180910390fd5b6001600160a01b038416600081815260056020908152604080832080546fffffffffffffffffffffffffffffffff1981166001600160401b038083168b018116918217600160401b67ffffffffffffffff1990941690921783900481168b01811690920217909155858452600490925290912080546001600160e01b0319168317600160a01b42909316929092029190911790558190818501903b156124a5575b60405182906001600160a01b03881690600090600080516020612d8e833981519152908290a461246e6000878480600101955087611d9c565b61248b576040516368d2bf6b60e11b815260040160405180910390fd5b8082106124355782600054146124a057600080fd5b6124d8565b5b6040516001830192906001600160a01b03881690600090600080516020612d8e833981519152908290a48082106124a6575b5060009081556114db9085838684565b8280546124f490612cb5565b90600052602060002090601f016020900481019282612516576000855561255c565b82601f1061252f57805160ff191683800117855561255c565b8280016001018555821561255c579182015b8281111561255c578251825591602001919060010190612541565b506125689291506125e0565b5090565b82805461257890612cb5565b90600052602060002090601f01602090048101928261259a576000855561255c565b82601f106125b35782800160ff1982351617855561255c565b8280016001018555821561255c579182015b8281111561255c5782358255916020019190600101906125c5565b5b8082111561256857600081556001016125e1565b60006001600160401b038084111561260f5761260f612d61565b604051601f8501601f19908116603f0116810190828211818310171561263757612637612d61565b8160405280935085815286868601111561265057600080fd5b858560208301376000602087830101525050509392505050565b80356001600160a01b038116811461127157600080fd5b60006020828403121561269357600080fd5b61176d8261266a565b600080604083850312156126af57600080fd5b6126b88361266a565b91506126c66020840161266a565b90509250929050565b6000806000606084860312156126e457600080fd5b6126ed8461266a565b92506126fb6020850161266a565b9150604084013590509250925092565b6000806000806080858703121561272157600080fd5b61272a8561266a565b93506127386020860161266a565b92506040850135915060608501356001600160401b0381111561275a57600080fd5b8501601f8101871361276b57600080fd5b61277a878235602084016125f5565b91505092959194509250565b6000806040838503121561279957600080fd5b6127a28361266a565b9150602083013580151581146127b757600080fd5b809150509250929050565b600080604083850312156127d557600080fd5b6127de8361266a565b946020939093013593505050565b600080604083850312156127ff57600080fd5b6128088361266a565b915060208301356001600160601b03811681146127b757600080fd5b60006020828403121561283657600080fd5b5035919050565b6000806040838503121561285057600080fd5b823591506126c66020840161266a565b60006020828403121561287257600080fd5b813561176d81612d77565b60006020828403121561288f57600080fd5b815161176d81612d77565b600080602083850312156128ad57600080fd5b82356001600160401b03808211156128c457600080fd5b818501915085601f8301126128d857600080fd5b8135818111156128e757600080fd5b8660208285010111156128f957600080fd5b60209290920196919550909350505050565b60006020828403121561291d57600080fd5b81356001600160401b0381111561293357600080fd5b8201601f8101841361294457600080fd5b611e8c848235602084016125f5565b60006020828403121561296557600080fd5b813560ff8116811461176d57600080fd5b6000815180845261298e816020860160208601612c72565b601f01601f19169290920160200192915050565b600083516129b4818460208801612c72565b8351908301906129c8818360208801612c72565b01949350505050565b7f416363657373436f6e74726f6c3a206163636f756e7420000000000000000000815260008351612a09816017850160208801612c72565b7001034b99036b4b9b9b4b733903937b6329607d1b6017918401918201528351612a3a816028840160208801612c72565b01602801949350505050565b6001600160a01b0385811682528416602082015260408101839052608060608201819052600090612a7990830184612976565b9695505050505050565b60208152600061176d6020830184612976565b60208082526025908201527f5b49726f6e466169726965734e46542e7768656e4e6f745061757365645d2050604082015264185d5cd95960da1b606082015260800190565b6020808252603b908201527f5b49726f6e466169726965734e46542e7768656e5075626c696353616c654e6f60408201527f745061757365645d205075626c69632053616c65205061757365640000000000606082015260800190565b6020808252818101527f4f776e61626c653a2063616c6c6572206973206e6f7420746865206f776e6572604082015260600190565b6020808252603d908201527f5b49726f6e466169726965734e46542e7768656e5072697661746553616c654e60408201527f6f745061757365645d20507269766174652053616c6520506175736564000000606082015260800190565b60208082526026908201527f5b49726f6e466169726965734e46542e7768656e5061757365645d204e6f742060408201526514185d5cd95960d21b606082015260800190565b60008219821115612c2357612c23612d1f565b500190565b600082612c3757612c37612d35565b500490565b6000816000190483118215151615612c5657612c56612d1f565b500290565b600082821015612c6d57612c6d612d1f565b500390565b60005b83811015612c8d578181015183820152602001612c75565b838111156114db5750506000910152565b600081612cad57612cad612d1f565b506000190190565b600181811c90821680612cc957607f821691505b60208210811415612cea57634e487b7160e01b600052602260045260246000fd5b50919050565b6000600019821415612d0457612d04612d1f565b5060010190565b600082612d1a57612d1a612d35565b500690565b634e487b7160e01b600052601160045260246000fd5b634e487b7160e01b600052601260045260246000fd5b634e487b7160e01b600052603260045260246000fd5b634e487b7160e01b600052604160045260246000fd5b6001600160e01b03198116811461187457600080fdfeddf252ad1be2c89b69c2b068fc378daa952ba7f163c4a11628f55a4df523b3efa2646970667358221220bd774e9a9698c8059ff37606a67cd027345ce0efd6efb99a9fd5f1c951218b2064736f6c63430008070033",
  "linkReferences": {},
  "deployedLinkReferences": {}
}